{
  "abi": [
    {
      "inputs": [
        {
          "internalType": "address",
          "name": "initialAddress",
          "type": "address"
        }
      ],
      "payable": false,
      "stateMutability": "nonpayable",
      "type": "constructor"
    },
    {
      "anonymous": false,
      "inputs": [
        {
          "indexed": false,
          "internalType": "bytes32",
          "name": "_tradeHash",
          "type": "bytes32"
        },
        {
          "indexed": false,
          "internalType": "uint128",
          "name": "totalGasFeesSpentByRelayer",
          "type": "uint128"
        }
      ],
      "name": "CancelledByBuyer",
      "type": "event"
    },
    {
      "anonymous": false,
      "inputs": [
        {
          "indexed": false,
          "internalType": "bytes32",
          "name": "_tradeHash",
          "type": "bytes32"
        }
      ],
      "name": "Created",
      "type": "event"
    },
    {
      "anonymous": false,
      "inputs": [
        {
          "indexed": false,
          "internalType": "bytes32",
          "name": "_tradeHash",
          "type": "bytes32"
        },
        {
          "indexed": false,
          "internalType": "uint128",
          "name": "totalGasFeesSpentByRelayer",
          "type": "uint128"
        }
      ],
      "name": "DisputeResolved",
      "type": "event"
    },
    {
      "anonymous": false,
      "inputs": [
        {
          "indexed": false,
          "internalType": "bytes32",
          "name": "_tradeHash",
          "type": "bytes32"
        },
        {
          "indexed": false,
          "internalType": "uint128",
          "name": "totalGasFeesSpentByRelayer",
          "type": "uint128"
        }
      ],
      "name": "Released",
      "type": "event"
    },
    {
      "constant": true,
      "inputs": [],
      "name": "arbitrator",
      "outputs": [
        {
          "internalType": "address",
          "name": "",
          "type": "address"
        }
      ],
      "payable": false,
      "stateMutability": "view",
      "type": "function"
    },
    {
      "constant": false,
      "inputs": [
        {
          "internalType": "bytes16[]",
          "name": "_tradeID",
          "type": "bytes16[]"
        },
        {
          "internalType": "address payable[]",
          "name": "_seller",
          "type": "address[]"
        },
        {
          "internalType": "address payable[]",
          "name": "_buyer",
          "type": "address[]"
        },
        {
          "internalType": "uint256[]",
          "name": "_value",
          "type": "uint256[]"
        },
        {
          "internalType": "uint16[]",
          "name": "_fee",
          "type": "uint16[]"
        },
        {
          "internalType": "uint128[]",
          "name": "_maximumGasPrice",
          "type": "uint128[]"
        },
        {
          "internalType": "uint8[]",
          "name": "_v",
          "type": "uint8[]"
        },
        {
          "internalType": "bytes32[]",
          "name": "_r",
          "type": "bytes32[]"
        },
        {
          "internalType": "bytes32[]",
          "name": "_s",
          "type": "bytes32[]"
        },
        {
          "internalType": "uint8[]",
          "name": "_instructionByte",
          "type": "uint8[]"
        }
      ],
      "name": "batchRelay",
      "outputs": [
        {
          "internalType": "bool[]",
          "name": "",
          "type": "bool[]"
        }
      ],
      "payable": false,
      "stateMutability": "nonpayable",
      "type": "function"
    },
    {
      "constant": false,
      "inputs": [
        {
          "internalType": "bytes16",
          "name": "_tradeID",
          "type": "bytes16"
        },
        {
          "internalType": "address payable",
          "name": "_seller",
          "type": "address"
        },
        {
          "internalType": "address payable",
          "name": "_buyer",
          "type": "address"
        },
        {
          "internalType": "uint256",
          "name": "_value",
          "type": "uint256"
        },
        {
          "internalType": "uint16",
          "name": "_fee",
          "type": "uint16"
        }
      ],
      "name": "buyerCancel",
      "outputs": [
        {
          "internalType": "bool",
          "name": "",
          "type": "bool"
        }
      ],
      "payable": false,
      "stateMutability": "nonpayable",
      "type": "function"
    },
    {
      "constant": false,
      "inputs": [
        {
          "internalType": "bytes16",
          "name": "_tradeID",
          "type": "bytes16"
        },
        {
          "internalType": "address",
          "name": "_currency",
          "type": "address"
        },
        {
          "internalType": "address",
          "name": "_seller",
          "type": "address"
        },
        {
          "internalType": "address",
          "name": "_buyer",
          "type": "address"
        },
        {
          "internalType": "uint256",
          "name": "_value",
          "type": "uint256"
        },
        {
          "internalType": "uint16",
          "name": "_fee",
          "type": "uint16"
        },
        {
          "internalType": "uint8",
          "name": "_v",
          "type": "uint8"
        },
        {
          "internalType": "bytes32",
          "name": "_r",
          "type": "bytes32"
        },
        {
          "internalType": "bytes32",
          "name": "_s",
          "type": "bytes32"
        }
      ],
      "name": "createEscrow",
      "outputs": [],
      "payable": true,
      "stateMutability": "payable",
      "type": "function"
    },
    {
      "constant": true,
      "inputs": [
        {
          "internalType": "bytes32",
          "name": "",
          "type": "bytes32"
        }
      ],
      "name": "escrows",
      "outputs": [
        {
          "internalType": "bool",
          "name": "exists",
          "type": "bool"
        },
        {
          "internalType": "uint128",
          "name": "totalGasFeesSpentByRelayer",
          "type": "uint128"
        },
        {
          "internalType": "address",
          "name": "tokenContract",
          "type": "address"
        }
      ],
      "payable": false,
      "stateMutability": "view",
      "type": "function"
    },
    {
      "constant": true,
      "inputs": [
        {
          "internalType": "address",
          "name": "",
          "type": "address"
        }
      ],
      "name": "feesAvailableForWithdraw",
      "outputs": [
        {
          "internalType": "uint256",
          "name": "",
          "type": "uint256"
        }
      ],
      "payable": false,
      "stateMutability": "view",
      "type": "function"
    },
    {
      "constant": true,
      "inputs": [],
      "name": "minimumTradeValue",
      "outputs": [
        {
          "internalType": "uint16",
          "name": "",
          "type": "uint16"
        }
      ],
      "payable": false,
      "stateMutability": "view",
      "type": "function"
    },
    {
      "constant": true,
      "inputs": [],
      "name": "owner",
      "outputs": [
        {
          "internalType": "address",
          "name": "",
          "type": "address"
        }
      ],
      "payable": false,
      "stateMutability": "view",
      "type": "function"
    },
    {
      "constant": false,
      "inputs": [
        {
          "internalType": "bytes16",
          "name": "_tradeID",
          "type": "bytes16"
        },
        {
          "internalType": "address payable",
          "name": "_seller",
          "type": "address"
        },
        {
          "internalType": "address payable",
          "name": "_buyer",
          "type": "address"
        },
        {
          "internalType": "uint256",
          "name": "_value",
          "type": "uint256"
        },
        {
          "internalType": "uint16",
          "name": "_fee",
          "type": "uint16"
        },
        {
          "internalType": "uint128",
          "name": "_maximumGasPrice",
          "type": "uint128"
        },
        {
          "internalType": "uint8",
          "name": "_v",
          "type": "uint8"
        },
        {
          "internalType": "bytes32",
          "name": "_r",
          "type": "bytes32"
        },
        {
          "internalType": "bytes32",
          "name": "_s",
          "type": "bytes32"
        },
        {
          "internalType": "uint8",
          "name": "_instructionByte",
          "type": "uint8"
        },
        {
          "internalType": "uint128",
          "name": "_additionalGas",
          "type": "uint128"
        }
      ],
      "name": "relay",
      "outputs": [
        {
          "internalType": "bool",
          "name": "",
          "type": "bool"
        }
      ],
      "payable": false,
      "stateMutability": "nonpayable",
      "type": "function"
    },
    {
      "constant": false,
      "inputs": [
        {
          "internalType": "bytes16",
          "name": "_tradeID",
          "type": "bytes16"
        },
        {
          "internalType": "address",
          "name": "_currency",
          "type": "address"
        },
        {
          "internalType": "address",
          "name": "_seller",
          "type": "address"
        },
        {
          "internalType": "address",
          "name": "_buyer",
          "type": "address"
        },
        {
          "internalType": "uint256",
          "name": "_value",
          "type": "uint256"
        },
        {
          "internalType": "uint16",
          "name": "_fee",
          "type": "uint16"
        },
        {
          "internalType": "uint8",
          "name": "_v",
          "type": "uint8"
        },
        {
          "internalType": "bytes32",
          "name": "_r",
          "type": "bytes32"
        },
        {
          "internalType": "bytes32",
          "name": "_s",
          "type": "bytes32"
        },
        {
          "internalType": "bytes32",
          "name": "_nonce",
          "type": "bytes32"
        },
        {
          "internalType": "uint8",
          "name": "_v_gasless",
          "type": "uint8"
        },
        {
          "internalType": "bytes32",
          "name": "_r_gasless",
          "type": "bytes32"
        },
        {
          "internalType": "bytes32",
          "name": "_s_gasless",
          "type": "bytes32"
        }
      ],
      "name": "relayEscrow",
      "outputs": [],
      "payable": true,
      "stateMutability": "payable",
      "type": "function"
    },
    {
      "constant": true,
      "inputs": [],
      "name": "relayer",
      "outputs": [
        {
          "internalType": "address",
          "name": "",
          "type": "address"
        }
      ],
      "payable": false,
      "stateMutability": "view",
      "type": "function"
    },
    {
      "constant": false,
      "inputs": [
        {
          "internalType": "bytes16",
          "name": "_tradeID",
          "type": "bytes16"
        },
        {
          "internalType": "address payable",
          "name": "_seller",
          "type": "address"
        },
        {
          "internalType": "address payable",
          "name": "_buyer",
          "type": "address"
        },
        {
          "internalType": "uint256",
          "name": "_value",
          "type": "uint256"
        },
        {
          "internalType": "uint16",
          "name": "_fee",
          "type": "uint16"
        }
      ],
      "name": "release",
      "outputs": [
        {
          "internalType": "bool",
          "name": "",
          "type": "bool"
        }
      ],
      "payable": false,
      "stateMutability": "nonpayable",
      "type": "function"
    },
    {
      "constant": false,
      "inputs": [
        {
          "internalType": "bytes16",
          "name": "_tradeID",
          "type": "bytes16"
        },
        {
          "internalType": "address payable",
          "name": "_seller",
          "type": "address"
        },
        {
          "internalType": "address payable",
          "name": "_buyer",
          "type": "address"
        },
        {
          "internalType": "uint256",
          "name": "_value",
          "type": "uint256"
        },
        {
          "internalType": "uint16",
          "name": "_fee",
          "type": "uint16"
        },
        {
          "internalType": "uint8",
          "name": "_v",
          "type": "uint8"
        },
        {
          "internalType": "bytes32",
          "name": "_r",
          "type": "bytes32"
        },
        {
          "internalType": "bytes32",
          "name": "_s",
          "type": "bytes32"
        },
        {
          "internalType": "uint8",
          "name": "_buyerPercent",
          "type": "uint8"
        }
      ],
      "name": "resolveDispute",
      "outputs": [],
      "payable": false,
      "stateMutability": "nonpayable",
      "type": "function"
    },
    {
      "constant": false,
      "inputs": [
        {
          "internalType": "address",
          "name": "_newArbitrator",
          "type": "address"
        }
      ],
      "name": "setArbitrator",
      "outputs": [],
      "payable": false,
      "stateMutability": "nonpayable",
      "type": "function"
    },
    {
      "constant": false,
      "inputs": [
        {
          "internalType": "uint16",
          "name": "_newMinimumValue",
          "type": "uint16"
        }
      ],
      "name": "setMinimumValue",
      "outputs": [],
      "payable": false,
      "stateMutability": "nonpayable",
      "type": "function"
    },
    {
      "constant": false,
      "inputs": [
        {
          "internalType": "address",
          "name": "_newOwner",
          "type": "address"
        }
      ],
      "name": "setOwner",
      "outputs": [],
      "payable": false,
      "stateMutability": "nonpayable",
      "type": "function"
    },
    {
      "constant": false,
      "inputs": [
        {
          "internalType": "address",
          "name": "_newRelayer",
          "type": "address"
        }
      ],
      "name": "setRelayer",
      "outputs": [],
      "payable": false,
      "stateMutability": "nonpayable",
      "type": "function"
    },
    {
      "constant": false,
      "inputs": [
        {
          "internalType": "address payable",
          "name": "_to",
          "type": "address"
        },
        {
          "internalType": "address",
          "name": "_currency",
          "type": "address"
        },
        {
          "internalType": "uint256",
          "name": "_amount",
          "type": "uint256"
        }
      ],
      "name": "withdrawFees",
      "outputs": [],
      "payable": false,
      "stateMutability": "nonpayable",
      "type": "function"
    }
  ],
  "address": "0x3BaE89B27Cc92c8f3FC97617cDd0F196e992E4b2",
  "args": [
    "0x7AB685a614d0aaC012e85f778FCC36913F3b2271"
  ],
  "solcInputHash": "0xa23be74584135e89f0eca9cba78e168ad3b5d84d3dbf523fe1aeb42e0430b90b",
  "bytecode": "0x60806040526002805461ffff60a01b1916600160a01b17905560001960055534801561002a57600080fd5b506040516125aa3803806125aa8339818101604052602081101561004d57600080fd5b5051600180546001600160a01b039092166001600160a01b031992831681179091556000805483168217905560028054909216179055612518806100926000396000f3fe6080604052600436106101095760003560e01c80636548e9bc116100955780638da5cb5b116100645780638da5cb5b146105345780638eb4e0ad14610549578063b0eefabe14610ada578063e55dc4e614610b0d578063e9600f1214610b5057610109565b80636548e9bc146104235780636cc6cde1146104565780637bd352b7146104875780638406c0791461051f57610109565b80631aeaad03116100dc5780631aeaad03146101e257806324943c7d1461024f5780632cc9636c146102cb5780632d83549c1461033d5780633bad7c7e1461039857610109565b806304f83df11461010e5780630947587e146101535780630d98ed3b1461017f57806313af4035146101af575b600080fd5b34801561011a57600080fd5b506101416004803603602081101561013157600080fd5b50356001600160a01b0316610bae565b60408051918252519081900360200190f35b34801561015f57600080fd5b50610168610bc0565b6040805161ffff9092168252519081900360200190f35b34801561018b57600080fd5b506101ad600480360360208110156101a257600080fd5b503561ffff16610bd1565b005b3480156101bb57600080fd5b506101ad600480360360208110156101d257600080fd5b50356001600160a01b0316610c3c565b6101ad60048036036101208110156101f957600080fd5b506001600160801b0319813516906001600160a01b03602082013581169160408101358216916060820135169060808101359061ffff60a0820135169060ff60c0820135169060e0810135906101000135610ca7565b34801561025b57600080fd5b506101ad600480360361012081101561027357600080fd5b506001600160801b0319813516906001600160a01b03602082013581169160408101359091169060608101359061ffff6080820135169060ff60a082013581169160c08101359160e082013591610100013516610f54565b3480156102d757600080fd5b50610329600480360360a08110156102ee57600080fd5b5080356001600160801b0319169060208101356001600160a01b03908116916040810135909116906060810135906080013561ffff166112c3565b604080519115158252519081900360200190f35b34801561034957600080fd5b506103676004803603602081101561036057600080fd5b503561132b565b6040805193151584526001600160801b0390921660208401526001600160a01b031682820152519081900360600190f35b6101ad60048036036101a08110156103af57600080fd5b506001600160801b0319813516906001600160a01b03602082013581169160408101358216916060820135169060808101359061ffff60a0820135169060ff60c082013581169160e08101359161010082013591610120810135916101408201351690610160810135906101800135611361565b34801561042f57600080fd5b506101ad6004803603602081101561044657600080fd5b50356001600160a01b03166116b5565b34801561046257600080fd5b5061046b611720565b604080516001600160a01b039092168252519081900360200190f35b34801561049357600080fd5b5061032960048036036101608110156104ab57600080fd5b506001600160801b0319813516906001600160a01b03602082013581169160408101359091169060608101359061ffff6080820135169060a08101356001600160801b039081169160ff60c082013581169260e083013592610100810135926101208201351691610140909101351661172f565b34801561052b57600080fd5b5061046b611824565b34801561054057600080fd5b5061046b611833565b34801561055557600080fd5b50610a8a600480360361014081101561056d57600080fd5b810190602081018135600160201b81111561058757600080fd5b82018360208201111561059957600080fd5b803590602001918460208302840111600160201b831117156105ba57600080fd5b9190808060200260200160405190810160405280939291908181526020018383602002808284376000920191909152509295949360208101935035915050600160201b81111561060957600080fd5b82018360208201111561061b57600080fd5b803590602001918460208302840111600160201b8311171561063c57600080fd5b9190808060200260200160405190810160405280939291908181526020018383602002808284376000920191909152509295949360208101935035915050600160201b81111561068b57600080fd5b82018360208201111561069d57600080fd5b803590602001918460208302840111600160201b831117156106be57600080fd5b9190808060200260200160405190810160405280939291908181526020018383602002808284376000920191909152509295949360208101935035915050600160201b81111561070d57600080fd5b82018360208201111561071f57600080fd5b803590602001918460208302840111600160201b8311171561074057600080fd5b9190808060200260200160405190810160405280939291908181526020018383602002808284376000920191909152509295949360208101935035915050600160201b81111561078f57600080fd5b8201836020820111156107a157600080fd5b803590602001918460208302840111600160201b831117156107c257600080fd5b9190808060200260200160405190810160405280939291908181526020018383602002808284376000920191909152509295949360208101935035915050600160201b81111561081157600080fd5b82018360208201111561082357600080fd5b803590602001918460208302840111600160201b8311171561084457600080fd5b9190808060200260200160405190810160405280939291908181526020018383602002808284376000920191909152509295949360208101935035915050600160201b81111561089357600080fd5b8201836020820111156108a557600080fd5b803590602001918460208302840111600160201b831117156108c657600080fd5b9190808060200260200160405190810160405280939291908181526020018383602002808284376000920191909152509295949360208101935035915050600160201b81111561091557600080fd5b82018360208201111561092757600080fd5b803590602001918460208302840111600160201b8311171561094857600080fd5b9190808060200260200160405190810160405280939291908181526020018383602002808284376000920191909152509295949360208101935035915050600160201b81111561099757600080fd5b8201836020820111156109a957600080fd5b803590602001918460208302840111600160201b831117156109ca57600080fd5b9190808060200260200160405190810160405280939291908181526020018383602002808284376000920191909152509295949360208101935035915050600160201b811115610a1957600080fd5b820183602082011115610a2b57600080fd5b803590602001918460208302840111600160201b83111715610a4c57600080fd5b919080806020026020016040519081016040528093929190818152602001838360200280828437600092019190915250929550611842945050505050565b60408051602080825283518183015283519192839290830191858101910280838360005b83811015610ac6578181015183820152602001610aae565b505050509050019250505060405180910390f35b348015610ae657600080fd5b506101ad60048036036020811015610afd57600080fd5b50356001600160a01b03166119d7565b348015610b1957600080fd5b506101ad60048036036060811015610b3057600080fd5b506001600160a01b03813581169160208101359091169060400135611a42565b348015610b5c57600080fd5b50610329600480360360a0811015610b7357600080fd5b5080356001600160801b0319169060208101356001600160a01b03908116916040810135909116906060810135906080013561ffff16611b17565b60046020526000908152604090205481565b600254600160a01b900461ffff1681565b6001546001600160a01b03163314610c1a5760405162461bcd60e51b815260040180806020018281038252602b81526020018061243a602b913960400191505060405180910390fd5b6002805461ffff909216600160a01b0261ffff60a01b19909216919091179055565b6001546001600160a01b03163314610c855760405162461bcd60e51b815260040180806020018281038252602b81526020018061243a602b913960400191505060405180910390fd5b600180546001600160a01b0319166001600160a01b0392909216919091179055565b604080516001600160801b03198b166020808301919091526001600160601b031960608b811b821660308501528a901b166044830152605882018890526001600160f01b031960f088901b1660788301528251605a818403018152607a9092018352815191810191909120600081815260039092529190205460ff1615610d6c576040805162461bcd60e51b8152602060048201526014602482015273547261646520616c72656164792065786973747360601b604482015290519081900360640190fd5b6040805160208082018490528251808303820181529183019092528051910120600254600160a01b900461ffff168711610dd75760405162461bcd60e51b815260040180806020018281038252602f815260200180612465602f913960400191505060405180910390fd5b6002546001600160a01b0316610def82878787611b76565b6001600160a01b031614610e345760405162461bcd60e51b815260040180806020018281038252602f815260200180612369602f913960400191505060405180910390fd5b610e4f6001600160a01b038b1633308a63ffffffff611c8c16565b604051806060016040528060011515815260200160006001600160801b031681526020018b6001600160a01b03168152506003600084815260200190815260200160002060008201518160000160006101000a81548160ff02191690831515021790555060208201518160000160016101000a8154816001600160801b0302191690836001600160801b0316021790555060408201518160010160006101000a8154816001600160a01b0302191690836001600160a01b031602179055509050507f102d25c49d33fcdb8976a3f2744e0785c98d9e43b88364859e6aec4ae82eff5c826040518082815260200191505060405180910390a15050505050505050505050565b6000546001600160a01b03163314610f9d5760405162461bcd60e51b815260040180806020018281038252603081526020018061240a6030913960400191505060405180910390fd5b604080516001600160801b03198b16602080830191909152600360f81b60308301528251601181840301815260319092019092528051910120600090610fe590868686611b76565b9050876001600160a01b0316816001600160a01b031614806110185750886001600160a01b0316816001600160a01b0316145b611069576040805162461bcd60e51b815260206004820152601760248201527f4d757374206265206275796572206f722073656c6c6572000000000000000000604482015290519081900360640190fd5b611071612348565b60006110808c8c8c8c8c611cec565b60408051606081018252835460ff811615158083526101009091046001600160801b031660208301526001909401546001600160a01b0316918101919091529350915061110c576040805162461bcd60e51b8152602060048201526015602482015274115cd8dc9bddc8191bd95cc81b9bdd08195e1a5cdd605a1b604482015290519081900360640190fd5b60648460ff16111561114f5760405162461bcd60e51b81526004018080602001828103825260228152602001806123e86022913960400191505060405180910390fd5b602082810180513a6136ec02016001600160801b03908116825260008481526003845260409081902080546001600160881b031916815560010180546001600160a01b03191690559151825185815291169281019290925280517f437ec3256bbed400455e142c7ce305c6e705cad2d1ba5a4ebed6a6dd133d93fb9281900390910190a160ff8416156112865761271061ffff89168a0204606460ff86168b02048190038a1015611238576040805162461bcd60e51b815260206004820152600e60248201526d27bb32b9333637bb9032b93937b960911b604482015290519081900360640190fd5b6040808401516001600160a01b031660009081526004602052208054820190556112848b82606460ff89168e02040385604001516001600160a01b0316611d6c9092919063ffffffff16565b505b60648460ff1610156112b55760408201516112b5906001600160a01b03168c606487810360ff168d0204611d6c565b505050505050505050505050565b6000336001600160a01b03851614611312576040805162461bcd60e51b815260206004820152600d60248201526c26bab9ba10313290313abcb2b960991b604482015290519081900360640190fd5b61132186868686866000611dbe565b9695505050505050565b6003602052600090815260409020805460019091015460ff82169161010090046001600160801b0316906001600160a01b031683565b604080516001600160801b03198f166020808301919091526001600160601b031960608f811b821660308501528e901b166044830152605882018c90526001600160f01b031960f08c901b1660788301528251605a818403018152607a9092018352815191810191909120600081815260039092529190205460ff16156114195760405162461bcd60e51b81526004018080602001828103825260268152602001806123986026913960400191505060405180910390fd5b6040805160208082018490528251808303820181529183019092528051910120600254600160a01b900461ffff168b116114845760405162461bcd60e51b815260040180806020018281038252602f815260200180612465602f913960400191505060405180910390fd5b6002546001600160a01b031661149c828b8b8b611b76565b6001600160a01b0316146114e15760405162461bcd60e51b815260040180806020018281038252602f815260200180612369602f913960400191505060405180910390fd5b8d6001600160a01b031663e3ee160e33308e60006005548c8c8c8c6040518a63ffffffff1660e01b8152600401808a6001600160a01b03166001600160a01b03168152602001896001600160a01b03166001600160a01b031681526020018881526020018781526020018681526020018581526020018460ff1660ff1681526020018381526020018281526020019950505050505050505050600060405180830381600087803b15801561159457600080fd5b505af11580156115a8573d6000803e3d6000fd5b50505050604051806060016040528060011515815260200160006001600160801b031681526020018f6001600160a01b03168152506003600084815260200190815260200160002060008201518160000160006101000a81548160ff02191690831515021790555060208201518160000160016101000a8154816001600160801b0302191690836001600160801b0316021790555060408201518160010160006101000a8154816001600160a01b0302191690836001600160a01b031602179055509050507f102d25c49d33fcdb8976a3f2744e0785c98d9e43b88364859e6aec4ae82eff5c826040518082815260200191505060405180910390a1505050505050505050505050505050565b6001546001600160a01b031633146116fe5760405162461bcd60e51b815260040180806020018281038252602b81526020018061243a602b913960400191505060405180910390fd5b600280546001600160a01b0319166001600160a01b0392909216919091179055565b6000546001600160a01b031681565b6000806117408d858a8a8a8a611f34565b90508a6001600160a01b0316816001600160a01b031614156117835760ff84166002141561177e576117768d8d8d8d8d88611dbe565b915050611815565b611813565b8b6001600160a01b0316816001600160a01b031614156117b75760ff84166001141561177e576117768d8d8d8d8d88611fe7565b336001600160a01b038d1614611809576040805162461bcd60e51b8152602060048201526012602482015271556e7265636f676e6973656420706172747960701b604482015290519081900360640190fd5b6000915050611815565b505b9b9a5050505050505050505050565b6002546001600160a01b031681565b6001546001600160a01b031681565b6060808b51604051908082528060200260200182016040528015611870578160200160208202803883390190505b506002549091506000906001600160a01b0316331461189057600061189e565b8c516175308161189c57fe5b045b905060005b8d518160ff1610156119c55761199e8e8260ff16815181106118c157fe5b60200260200101518e8360ff16815181106118d857fe5b60200260200101518e8460ff16815181106118ef57fe5b60200260200101518e8560ff168151811061190657fe5b60200260200101518e8660ff168151811061191d57fe5b60200260200101518e8760ff168151811061193457fe5b60200260200101518e8860ff168151811061194b57fe5b60200260200101518e8960ff168151811061196257fe5b60200260200101518e8a60ff168151811061197957fe5b60200260200101518e8b60ff168151811061199057fe5b60200260200101518c61172f565b838260ff16815181106119ad57fe5b911515602092830291909101909101526001016118a3565b50909c9b505050505050505050505050565b6001546001600160a01b03163314611a205760405162461bcd60e51b815260040180806020018281038252602b81526020018061243a602b913960400191505060405180910390fd5b600080546001600160a01b0319166001600160a01b0392909216919091179055565b6001546001600160a01b03163314611a8b5760405162461bcd60e51b815260040180806020018281038252602b81526020018061243a602b913960400191505060405180910390fd5b6001600160a01b038216600090815260046020526040902054811115611ae25760405162461bcd60e51b81526004018080602001828103825260268152602001806124946026913960400191505060405180910390fd5b6001600160a01b038216600081815260046020526040902080548390039055611b1290848363ffffffff611d6c16565b505050565b6000336001600160a01b03861614611b67576040805162461bcd60e51b815260206004820152600e60248201526d26bab9ba1031329039b2b63632b960911b604482015290519081900360640190fd5b61132186868686866000611fe7565b600060606040518060400160405280601c81526020017f19457468657265756d205369676e6564204d6573736167653a0a3332000000008152509050600081876040516020018083805190602001908083835b60208310611be85780518252601f199092019160209182019101611bc9565b51815160209384036101000a6000190180199092169116179052920193845250604080518085038152848301808352815191840191909120600090915281850180835281905260ff8c166060860152608085018b905260a085018a905290519095506001945060c080850194929350601f198201928290030190855afa158015611c76573d6000803e3d6000fd5b5050604051601f19015198975050505050505050565b604080516001600160a01b0385811660248301528416604482015260648082018490528251808303909101815260849091019091526020810180516001600160e01b03166323b872dd60e01b179052611ce6908590612101565b50505050565b604080516001600160801b031996909616602080880191909152606095861b6001600160601b031990811660308901529490951b9093166044860152605885019190915260f01b6001600160f01b03191660788401528051808403605a018152607a90930181528251928201929092206000818152600390925291902091565b604080516001600160a01b038416602482015260448082018490528251808303909101815260649091019091526020810180516001600160e01b031663a9059cbb60e01b179052611b12908490612101565b6000611dc8612348565b6000611dd78989898989611cec565b60408051606081018252835460ff811615158083526101009091046001600160801b031660208301526001909401546001600160a01b03169181019190915293509150611e63576040805162461bcd60e51b8152602060048201526015602482015274115cd8dc9bddc8191bd95cc81b9bdd08195e1a5cdd605a1b604482015290519081900360640190fd5b8151611e7457600092505050611321565b6002546000906001600160a01b03163314611e90576000611e98565b61093f85013a025b60208481015160008581526003835260409081902080546001600160881b031916815560010180546001600160a01b03191690558051868152939091016001600160801b0381169284019290925280519193507fef5d27f6da36198207d0bf4c1db4f2d6e12a27045c53f7e7f2529ec7045a65c0928290030190a1611f2483604001518a8960006122b9565b5060019998505050505050505050565b604080516001600160801b03198089166020808401919091526001600160f81b031960f88a901b166030840152608088901b909116603183015282516021818403018152604190920190925280519101206000906001600160801b0386163a10611fcf5760405162461bcd60e51b815260040180806020018281038252602a8152602001806123be602a913960400191505060405180910390fd5b611fdb81868686611b76565b98975050505050505050565b6000611ff1612348565b60006120008989898989611cec565b60408051606081018252835460ff811615158083526101009091046001600160801b031660208301526001909401546001600160a01b0316918101919091529350915061205257600092505050611321565b6002546000906001600160a01b0316331461206e576000612076565b610e4a85013a025b60208481015160008581526003835260409081902080546001600160881b031916815560010180546001600160a01b03191690558051868152939091016001600160801b0381169284019290925280519193507f44306e460694e3f7e04300c4479a6818c0a825e0482fd6d4d0f16b0232e96205928290030190a1611f2483604001518989896122b9565b612113826001600160a01b031661230c565b612164576040805162461bcd60e51b815260206004820152601f60248201527f5361666545524332303a2063616c6c20746f206e6f6e2d636f6e747261637400604482015290519081900360640190fd5b60006060836001600160a01b0316836040518082805190602001908083835b602083106121a25780518252601f199092019160209182019101612183565b6001836020036101000a0380198251168184511680821785525050505050509050019150506000604051808303816000865af19150503d8060008114612204576040519150601f19603f3d011682016040523d82523d6000602084013e612209565b606091505b509150915081612260576040805162461bcd60e51b815260206004820181905260248201527f5361666545524332303a206c6f772d6c6576656c2063616c6c206661696c6564604482015290519081900360640190fd5b805115611ce65780806020019051602081101561227c57600080fd5b5051611ce65760405162461bcd60e51b815260040180806020018281038252602a8152602001806124ba602a913960400191505060405180910390fd5b61271061ffff82168302048083038310156122d45750611ce6565b6001600160a01b0385166000818152600460205260409020805483019055612305908583860363ffffffff611d6c16565b5050505050565b6000813f7fc5d2460186f7233c927e7db2dcc703c0e500b653ca82273b7bfad8045d85a47081811480159061234057508115155b949350505050565b60408051606081018252600080825260208201819052918101919091529056fe5472616e73616374696f6e207369676e617475726520646964206e6f7420636f6d652066726f6d2072656c61796572547261646520616c72656164792065786973747320696e20657363726f77206d617070696e6747617320707269636520697320686967686572207468616e206d6178696d756d206761732070726963655f627579657250657263656e74206d75737420626520313030206f72206c6f7765724f6e6c79207468652063757272656e74206f776e65722063616e206368616e6765207468652061726269747261746f724f6e6c79207468652063757272656e74206f776e65722063616e206368616e676520746865206f776e6572457363726f772076616c7565206d7573742062652067726561746572207468616e206d696e696d756d2076616c7565416d6f756e7420697320686967686572207468616e20616d6f756e7420617661696c61626c655361666545524332303a204552433230206f7065726174696f6e20646964206e6f742073756363656564a265627a7a7231582013a65d3ad08c19451eb55f0dbe8c4ea4940824e8cd33487a8a105fade058e8b264736f6c63430005110032",
  "devdoc": {
    "methods": {}
  },
  "userdoc": {
    "methods": {
      "constructor": "********************* +     Constructor      +**********************",
      "createEscrow(bytes16,address,address,address,uint256,uint16,uint8,bytes32,bytes32)": {
        "notice": "********************* +     Open Escrow     +**********************"
      },
      "release(bytes16,address,address,uint256,uint16)": {
        "notice": "********************* +   Complete Escrow    +**********************"
      },
      "setArbitrator(address)": {
        "notice": "********************* +      Management      +**********************"
      }
    }
  },
  "storageLayout": {
    "storage": [
      {
        "astId": 583,
        "contract": "contracts/localcoinswap/LocalCoinSwapV2.sol:LocalCoinSwapV2Escrow",
        "label": "arbitrator",
        "offset": 0,
        "slot": "0",
        "type": "t_address"
      },
      {
        "astId": 585,
        "contract": "contracts/localcoinswap/LocalCoinSwapV2.sol:LocalCoinSwapV2Escrow",
        "label": "owner",
        "offset": 0,
        "slot": "1",
        "type": "t_address"
      },
      {
        "astId": 587,
        "contract": "contracts/localcoinswap/LocalCoinSwapV2.sol:LocalCoinSwapV2Escrow",
        "label": "relayer",
        "offset": 0,
        "slot": "2",
        "type": "t_address"
      },
      {
        "astId": 590,
        "contract": "contracts/localcoinswap/LocalCoinSwapV2.sol:LocalCoinSwapV2Escrow",
        "label": "minimumTradeValue",
        "offset": 20,
        "slot": "2",
        "type": "t_uint16"
      },
      {
        "astId": 601,
        "contract": "contracts/localcoinswap/LocalCoinSwapV2.sol:LocalCoinSwapV2Escrow",
        "label": "escrows",
        "offset": 0,
        "slot": "3",
        "type": "t_mapping(t_bytes32,t_struct(Escrow)597_storage)"
      },
      {
        "astId": 605,
        "contract": "contracts/localcoinswap/LocalCoinSwapV2.sol:LocalCoinSwapV2Escrow",
        "label": "feesAvailableForWithdraw",
        "offset": 0,
        "slot": "4",
        "type": "t_mapping(t_address,t_uint256)"
      },
      {
        "astId": 612,
        "contract": "contracts/localcoinswap/LocalCoinSwapV2.sol:LocalCoinSwapV2Escrow",
        "label": "MAX_INT",
        "offset": 0,
        "slot": "5",
        "type": "t_uint256"
      }
    ],
    "types": {
      "t_address": {
        "encoding": "inplace",
        "label": "address",
        "numberOfBytes": "20"
      },
      "t_bool": {
        "encoding": "inplace",
        "label": "bool",
        "numberOfBytes": "1"
      },
      "t_bytes32": {
        "encoding": "inplace",
        "label": "bytes32",
        "numberOfBytes": "32"
      },
      "t_mapping(t_address,t_uint256)": {
        "encoding": "mapping",
        "key": "t_address",
        "label": "mapping(address => uint256)",
        "numberOfBytes": "32",
        "value": "t_uint256"
      },
      "t_mapping(t_bytes32,t_struct(Escrow)597_storage)": {
        "encoding": "mapping",
        "key": "t_bytes32",
        "label": "mapping(bytes32 => struct LocalCoinSwapV2Escrow.Escrow)",
        "numberOfBytes": "32",
        "value": "t_struct(Escrow)597_storage"
      },
      "t_struct(Escrow)597_storage": {
        "encoding": "inplace",
        "label": "struct LocalCoinSwapV2Escrow.Escrow",
        "members": [
          {
            "astId": 592,
            "contract": "contracts/localcoinswap/LocalCoinSwapV2.sol:LocalCoinSwapV2Escrow",
            "label": "exists",
            "offset": 0,
            "slot": "0",
            "type": "t_bool"
          },
          {
            "astId": 594,
            "contract": "contracts/localcoinswap/LocalCoinSwapV2.sol:LocalCoinSwapV2Escrow",
            "label": "totalGasFeesSpentByRelayer",
            "offset": 1,
            "slot": "0",
            "type": "t_uint128"
          },
          {
            "astId": 596,
            "contract": "contracts/localcoinswap/LocalCoinSwapV2.sol:LocalCoinSwapV2Escrow",
            "label": "tokenContract",
            "offset": 0,
            "slot": "1",
            "type": "t_address"
          }
        ],
        "numberOfBytes": "64"
      },
      "t_uint128": {
        "encoding": "inplace",
        "label": "uint128",
        "numberOfBytes": "16"
      },
      "t_uint16": {
        "encoding": "inplace",
        "label": "uint16",
        "numberOfBytes": "2"
      },
      "t_uint256": {
        "encoding": "inplace",
        "label": "uint256",
        "numberOfBytes": "32"
      }
    }
  },
  "gasEstimates": {
    "creation": {
      "codeDepositCost": "1899200",
      "executionCost": "infinite",
      "totalCost": "infinite"
    },
    "external": {
      "arbitrator()": "1082",
      "batchRelay(bytes16[],address[],address[],uint256[],uint16[],uint128[],uint8[],bytes32[],bytes32[],uint8[])": "infinite",
      "buyerCancel(bytes16,address,address,uint256,uint16)": "infinite",
      "createEscrow(bytes16,address,address,address,uint256,uint16,uint8,bytes32,bytes32)": "infinite",
      "escrows(bytes32)": "2150",
      "feesAvailableForWithdraw(address)": "1148",
      "minimumTradeValue()": "1076",
      "owner()": "1059",
      "relay(bytes16,address,address,uint256,uint16,uint128,uint8,bytes32,bytes32,uint8,uint128)": "infinite",
      "relayEscrow(bytes16,address,address,address,uint256,uint16,uint8,bytes32,bytes32,bytes32,uint8,bytes32,bytes32)": "infinite",
      "relayer()": "1126",
      "release(bytes16,address,address,uint256,uint16)": "infinite",
      "resolveDispute(bytes16,address,address,uint256,uint16,uint8,bytes32,bytes32,uint8)": "infinite",
      "setArbitrator(address)": "infinite",
      "setMinimumValue(uint16)": "infinite",
      "setOwner(address)": "infinite",
      "setRelayer(address)": "infinite",
      "withdrawFees(address,address,uint256)": "infinite"
    },
    "internal": {
      "doBuyerCancel(bytes16,address payable,address payable,uint256,uint16,uint128)": "infinite",
      "doRelease(bytes16,address payable,address payable,uint256,uint16,uint128)": "infinite",
      "getEscrowAndHash(bytes16,address,address,uint256,uint16)": "infinite",
      "getRelayedSender(bytes16,uint8,uint128,uint8,bytes32,bytes32)": "infinite",
      "increaseGasSpent(bytes32,uint128)": "infinite",
      "recoverAddress(bytes32,uint8,bytes32,bytes32)": "infinite",
      "transferMinusFees(address,address payable,uint256,uint16)": "infinite"
    }
  }
}