{
  "abi": [
    {
      "inputs": [
        {
          "internalType": "address",
          "name": "initialAddress",
          "type": "address"
        }
      ],
      "payable": false,
      "stateMutability": "nonpayable",
      "type": "constructor"
    },
    {
      "anonymous": false,
      "inputs": [
        {
          "indexed": true,
          "internalType": "bytes32",
          "name": "_tradeHash",
          "type": "bytes32"
        }
      ],
      "name": "CancelledByBuyer",
      "type": "event"
    },
    {
      "anonymous": false,
      "inputs": [
        {
          "indexed": true,
          "internalType": "bytes32",
          "name": "_tradeHash",
          "type": "bytes32"
        }
      ],
      "name": "CancelledBySeller",
      "type": "event"
    },
    {
      "anonymous": false,
      "inputs": [
        {
          "indexed": true,
          "internalType": "bytes32",
          "name": "_tradeHash",
          "type": "bytes32"
        }
      ],
      "name": "Created",
      "type": "event"
    },
    {
      "anonymous": false,
      "inputs": [
        {
          "indexed": true,
          "internalType": "bytes32",
          "name": "_tradeHash",
          "type": "bytes32"
        }
      ],
      "name": "DisputeResolved",
      "type": "event"
    },
    {
      "anonymous": false,
      "inputs": [
        {
          "indexed": true,
          "internalType": "bytes32",
          "name": "_tradeHash",
          "type": "bytes32"
        }
      ],
      "name": "Released",
      "type": "event"
    },
    {
      "anonymous": false,
      "inputs": [
        {
          "indexed": true,
          "internalType": "bytes32",
          "name": "_tradeHash",
          "type": "bytes32"
        }
      ],
      "name": "SellerCancelDisabled",
      "type": "event"
    },
    {
      "anonymous": false,
      "inputs": [
        {
          "indexed": true,
          "internalType": "bytes32",
          "name": "_tradeHash",
          "type": "bytes32"
        }
      ],
      "name": "SellerRequestedCancel",
      "type": "event"
    },
    {
      "constant": false,
      "inputs": [
        {
          "internalType": "contract IERC20",
          "name": "TokenContract",
          "type": "address"
        },
        {
          "internalType": "address",
          "name": "_spender",
          "type": "address"
        },
        {
          "internalType": "uint256",
          "name": "_value",
          "type": "uint256"
        }
      ],
      "name": "approveToken",
      "outputs": [],
      "payable": false,
      "stateMutability": "nonpayable",
      "type": "function"
    },
    {
      "constant": true,
      "inputs": [],
      "name": "arbitrator",
      "outputs": [
        {
          "internalType": "address",
          "name": "",
          "type": "address"
        }
      ],
      "payable": false,
      "stateMutability": "view",
      "type": "function"
    },
    {
      "constant": false,
      "inputs": [
        {
          "internalType": "bytes16[]",
          "name": "_tradeID",
          "type": "bytes16[]"
        },
        {
          "internalType": "address payable[]",
          "name": "_seller",
          "type": "address[]"
        },
        {
          "internalType": "address payable[]",
          "name": "_buyer",
          "type": "address[]"
        },
        {
          "internalType": "uint256[]",
          "name": "_value",
          "type": "uint256[]"
        },
        {
          "internalType": "uint16[]",
          "name": "_fee",
          "type": "uint16[]"
        },
        {
          "internalType": "uint128[]",
          "name": "_maximumGasPrice",
          "type": "uint128[]"
        },
        {
          "internalType": "uint8[]",
          "name": "_v",
          "type": "uint8[]"
        },
        {
          "internalType": "bytes32[]",
          "name": "_r",
          "type": "bytes32[]"
        },
        {
          "internalType": "bytes32[]",
          "name": "_s",
          "type": "bytes32[]"
        },
        {
          "internalType": "uint8[]",
          "name": "_instructionByte",
          "type": "uint8[]"
        }
      ],
      "name": "batchRelay",
      "outputs": [
        {
          "internalType": "bool[]",
          "name": "",
          "type": "bool[]"
        }
      ],
      "payable": false,
      "stateMutability": "nonpayable",
      "type": "function"
    },
    {
      "constant": false,
      "inputs": [
        {
          "internalType": "bytes16",
          "name": "_tradeID",
          "type": "bytes16"
        },
        {
          "internalType": "address payable",
          "name": "_seller",
          "type": "address"
        },
        {
          "internalType": "address payable",
          "name": "_buyer",
          "type": "address"
        },
        {
          "internalType": "uint256",
          "name": "_value",
          "type": "uint256"
        },
        {
          "internalType": "uint16",
          "name": "_fee",
          "type": "uint16"
        }
      ],
      "name": "buyerCancel",
      "outputs": [
        {
          "internalType": "bool",
          "name": "",
          "type": "bool"
        }
      ],
      "payable": false,
      "stateMutability": "nonpayable",
      "type": "function"
    },
    {
      "constant": false,
      "inputs": [
        {
          "internalType": "bytes16",
          "name": "_tradeID",
          "type": "bytes16"
        },
        {
          "internalType": "address",
          "name": "_seller",
          "type": "address"
        },
        {
          "internalType": "address",
          "name": "_buyer",
          "type": "address"
        },
        {
          "internalType": "uint256",
          "name": "_value",
          "type": "uint256"
        },
        {
          "internalType": "uint16",
          "name": "_fee",
          "type": "uint16"
        },
        {
          "internalType": "uint32",
          "name": "_paymentWindowInSeconds",
          "type": "uint32"
        },
        {
          "internalType": "uint32",
          "name": "_expiry",
          "type": "uint32"
        },
        {
          "internalType": "uint8",
          "name": "_v",
          "type": "uint8"
        },
        {
          "internalType": "bytes32",
          "name": "_r",
          "type": "bytes32"
        },
        {
          "internalType": "bytes32",
          "name": "_s",
          "type": "bytes32"
        }
      ],
      "name": "createEscrow",
      "outputs": [],
      "payable": true,
      "stateMutability": "payable",
      "type": "function"
    },
    {
      "constant": true,
      "inputs": [
        {
          "internalType": "bytes32",
          "name": "",
          "type": "bytes32"
        }
      ],
      "name": "escrows",
      "outputs": [
        {
          "internalType": "bool",
          "name": "exists",
          "type": "bool"
        },
        {
          "internalType": "uint32",
          "name": "sellerCanCancelAfter",
          "type": "uint32"
        },
        {
          "internalType": "uint128",
          "name": "totalGasFeesSpentByRelayer",
          "type": "uint128"
        }
      ],
      "payable": false,
      "stateMutability": "view",
      "type": "function"
    },
    {
      "constant": true,
      "inputs": [],
      "name": "feesAvailableForWithdraw",
      "outputs": [
        {
          "internalType": "uint256",
          "name": "",
          "type": "uint256"
        }
      ],
      "payable": false,
      "stateMutability": "view",
      "type": "function"
    },
    {
      "constant": true,
      "inputs": [],
      "name": "owner",
      "outputs": [
        {
          "internalType": "address",
          "name": "",
          "type": "address"
        }
      ],
      "payable": false,
      "stateMutability": "view",
      "type": "function"
    },
    {
      "constant": true,
      "inputs": [],
      "name": "relayer",
      "outputs": [
        {
          "internalType": "address",
          "name": "",
          "type": "address"
        }
      ],
      "payable": false,
      "stateMutability": "view",
      "type": "function"
    },
    {
      "constant": false,
      "inputs": [
        {
          "internalType": "bytes16",
          "name": "_tradeID",
          "type": "bytes16"
        },
        {
          "internalType": "address payable",
          "name": "_seller",
          "type": "address"
        },
        {
          "internalType": "address payable",
          "name": "_buyer",
          "type": "address"
        },
        {
          "internalType": "uint256",
          "name": "_value",
          "type": "uint256"
        },
        {
          "internalType": "uint16",
          "name": "_fee",
          "type": "uint16"
        }
      ],
      "name": "release",
      "outputs": [
        {
          "internalType": "bool",
          "name": "",
          "type": "bool"
        }
      ],
      "payable": false,
      "stateMutability": "nonpayable",
      "type": "function"
    },
    {
      "constant": true,
      "inputs": [],
      "name": "requestCancellationMinimumTime",
      "outputs": [
        {
          "internalType": "uint32",
          "name": "",
          "type": "uint32"
        }
      ],
      "payable": false,
      "stateMutability": "view",
      "type": "function"
    },
    {
      "constant": false,
      "inputs": [
        {
          "internalType": "bytes16",
          "name": "_tradeID",
          "type": "bytes16"
        },
        {
          "internalType": "address payable",
          "name": "_seller",
          "type": "address"
        },
        {
          "internalType": "address payable",
          "name": "_buyer",
          "type": "address"
        },
        {
          "internalType": "uint256",
          "name": "_value",
          "type": "uint256"
        },
        {
          "internalType": "uint16",
          "name": "_fee",
          "type": "uint16"
        },
        {
          "internalType": "uint8",
          "name": "_v",
          "type": "uint8"
        },
        {
          "internalType": "bytes32",
          "name": "_r",
          "type": "bytes32"
        },
        {
          "internalType": "bytes32",
          "name": "_s",
          "type": "bytes32"
        },
        {
          "internalType": "uint8",
          "name": "_buyerPercent",
          "type": "uint8"
        }
      ],
      "name": "resolveDispute",
      "outputs": [],
      "payable": false,
      "stateMutability": "nonpayable",
      "type": "function"
    },
    {
      "constant": false,
      "inputs": [
        {
          "internalType": "address",
          "name": "_newArbitrator",
          "type": "address"
        }
      ],
      "name": "setArbitrator",
      "outputs": [],
      "payable": false,
      "stateMutability": "nonpayable",
      "type": "function"
    },
    {
      "constant": false,
      "inputs": [
        {
          "internalType": "address",
          "name": "_newOwner",
          "type": "address"
        }
      ],
      "name": "setOwner",
      "outputs": [],
      "payable": false,
      "stateMutability": "nonpayable",
      "type": "function"
    },
    {
      "constant": false,
      "inputs": [
        {
          "internalType": "address",
          "name": "_newRelayer",
          "type": "address"
        }
      ],
      "name": "setRelayer",
      "outputs": [],
      "payable": false,
      "stateMutability": "nonpayable",
      "type": "function"
    },
    {
      "constant": false,
      "inputs": [
        {
          "internalType": "contract IERC20",
          "name": "TokenContract",
          "type": "address"
        },
        {
          "internalType": "address",
          "name": "_transferTo",
          "type": "address"
        },
        {
          "internalType": "uint256",
          "name": "_value",
          "type": "uint256"
        }
      ],
      "name": "transferToken",
      "outputs": [],
      "payable": false,
      "stateMutability": "nonpayable",
      "type": "function"
    },
    {
      "constant": false,
      "inputs": [
        {
          "internalType": "contract IERC20",
          "name": "TokenContract",
          "type": "address"
        },
        {
          "internalType": "address",
          "name": "_transferTo",
          "type": "address"
        },
        {
          "internalType": "address",
          "name": "_transferFrom",
          "type": "address"
        },
        {
          "internalType": "uint256",
          "name": "_value",
          "type": "uint256"
        }
      ],
      "name": "transferTokenFrom",
      "outputs": [],
      "payable": false,
      "stateMutability": "nonpayable",
      "type": "function"
    },
    {
      "constant": false,
      "inputs": [
        {
          "internalType": "address payable",
          "name": "_to",
          "type": "address"
        },
        {
          "internalType": "uint256",
          "name": "_amount",
          "type": "uint256"
        }
      ],
      "name": "withdrawFees",
      "outputs": [],
      "payable": false,
      "stateMutability": "nonpayable",
      "type": "function"
    }
  ],
  "address": "0x0e87bF5286C4091e0eeb7814D802115dFBb4c4cd",
  "args": [
    "0x7AB685a614d0aaC012e85f778FCC36913F3b2271"
  ],
  "solcInputHash": "0x1935526af86e441e5657a10d06775e98a1374760c110009558e56e213ad38fc6",
  "bytecode": "0x60806040526002805463ffffffff60a01b191660e160a51b17905534801561002657600080fd5b50604051611f90380380611f908339818101604052602081101561004957600080fd5b5051600180546001600160a01b039092166001600160a01b031992831681179091556000805483168217905560028054909216179055611f028061008e6000396000f3fe6080604052600436106101095760003560e01c80638eb4e0ad11610095578063de5785d511610064578063de5785d514610985578063e5994905146109ac578063e9600f12146109f5578063f1e03d6714610a53578063f5537ede14610ad157610109565b80638eb4e0ad14610345578063ad3b1b47146108d6578063b0eefabe1461090f578063da3e33971461094257610109565b806357938b2a116100dc57806357938b2a146102895780636548e9bc146102b75780636cc6cde1146102ea5780638406c0791461031b5780638da5cb5b1461033057610109565b806313af40351461010e57806324943c7d146101435780632cc9636c146101bf5780632d83549c14610231575b600080fd5b34801561011a57600080fd5b506101416004803603602081101561013157600080fd5b50356001600160a01b0316610b14565b005b34801561014f57600080fd5b50610141600480360361012081101561016757600080fd5b506001600160801b0319813516906001600160a01b03602082013581169160408101359091169060608101359061ffff6080820135169060ff60a082013581169160c08101359160e082013591610100013516610b85565b3480156101cb57600080fd5b5061021d600480360360a08110156101e257600080fd5b5080356001600160801b0319169060208101356001600160a01b03908116916040810135909116906060810135906080013561ffff16610f3a565b604080519115158252519081900360200190f35b34801561023d57600080fd5b5061025b6004803603602081101561025457600080fd5b5035610fa2565b60408051931515845263ffffffff90921660208401526001600160801b031682820152519081900360600190f35b34801561029557600080fd5b5061029e610fd5565b6040805163ffffffff9092168252519081900360200190f35b3480156102c357600080fd5b50610141600480360360208110156102da57600080fd5b50356001600160a01b0316610fe8565b3480156102f657600080fd5b506102ff611059565b604080516001600160a01b039092168252519081900360200190f35b34801561032757600080fd5b506102ff611068565b34801561033c57600080fd5b506102ff611077565b34801561035157600080fd5b50610886600480360361014081101561036957600080fd5b810190602081018135600160201b81111561038357600080fd5b82018360208201111561039557600080fd5b803590602001918460208302840111600160201b831117156103b657600080fd5b9190808060200260200160405190810160405280939291908181526020018383602002808284376000920191909152509295949360208101935035915050600160201b81111561040557600080fd5b82018360208201111561041757600080fd5b803590602001918460208302840111600160201b8311171561043857600080fd5b9190808060200260200160405190810160405280939291908181526020018383602002808284376000920191909152509295949360208101935035915050600160201b81111561048757600080fd5b82018360208201111561049957600080fd5b803590602001918460208302840111600160201b831117156104ba57600080fd5b9190808060200260200160405190810160405280939291908181526020018383602002808284376000920191909152509295949360208101935035915050600160201b81111561050957600080fd5b82018360208201111561051b57600080fd5b803590602001918460208302840111600160201b8311171561053c57600080fd5b9190808060200260200160405190810160405280939291908181526020018383602002808284376000920191909152509295949360208101935035915050600160201b81111561058b57600080fd5b82018360208201111561059d57600080fd5b803590602001918460208302840111600160201b831117156105be57600080fd5b9190808060200260200160405190810160405280939291908181526020018383602002808284376000920191909152509295949360208101935035915050600160201b81111561060d57600080fd5b82018360208201111561061f57600080fd5b803590602001918460208302840111600160201b8311171561064057600080fd5b9190808060200260200160405190810160405280939291908181526020018383602002808284376000920191909152509295949360208101935035915050600160201b81111561068f57600080fd5b8201836020820111156106a157600080fd5b803590602001918460208302840111600160201b831117156106c257600080fd5b9190808060200260200160405190810160405280939291908181526020018383602002808284376000920191909152509295949360208101935035915050600160201b81111561071157600080fd5b82018360208201111561072357600080fd5b803590602001918460208302840111600160201b8311171561074457600080fd5b9190808060200260200160405190810160405280939291908181526020018383602002808284376000920191909152509295949360208101935035915050600160201b81111561079357600080fd5b8201836020820111156107a557600080fd5b803590602001918460208302840111600160201b831117156107c657600080fd5b9190808060200260200160405190810160405280939291908181526020018383602002808284376000920191909152509295949360208101935035915050600160201b81111561081557600080fd5b82018360208201111561082757600080fd5b803590602001918460208302840111600160201b8311171561084857600080fd5b919080806020026020016040519081016040528093929190818152602001838360200280828437600092019190915250929550611086945050505050565b60408051602080825283518183015283519192839290830191858101910280838360005b838110156108c25781810151838201526020016108aa565b505050509050019250505060405180910390f35b3480156108e257600080fd5b50610141600480360360408110156108f957600080fd5b506001600160a01b03813516906020013561121b565b34801561091b57600080fd5b506101416004803603602081101561093257600080fd5b50356001600160a01b03166112ef565b34801561094e57600080fd5b506101416004803603606081101561096557600080fd5b506001600160a01b03813581169160208101359091169060400135611360565b34801561099157600080fd5b5061099a611440565b60408051918252519081900360200190f35b3480156109b857600080fd5b50610141600480360360808110156109cf57600080fd5b506001600160a01b03813581169160208101358216916040820135169060600135611446565b348015610a0157600080fd5b5061021d600480360360a0811015610a1857600080fd5b5080356001600160801b0319169060208101356001600160a01b03908116916040810135909116906060810135906080013561ffff16611522565b6101416004803603610140811015610a6a57600080fd5b506001600160801b0319813516906001600160a01b03602082013581169160408101359091169060608101359061ffff6080820135169063ffffffff60a082013581169160c08101359091169060ff60e08201351690610100810135906101200135611581565b348015610add57600080fd5b5061014160048036036060811015610af457600080fd5b506001600160a01b03813581169160208101359091169060400135611874565b6001546001600160a01b03163314610b63576040805162461bcd60e51b815260206004820152600d60248201526c26bab9ba1031329037bbb732b960991b604482015290519081900360640190fd5b600180546001600160a01b0319166001600160a01b0392909216919091179055565b6000546001600160a01b03163314610bd9576040805162461bcd60e51b815260206004820152601260248201527126bab9ba1031329030b93134ba3930ba37b960711b604482015290519081900360640190fd5b604080516001600160801b03198b16602080830191909152600360f81b60308301528251601181840301815260319092019092528051910120600090610c2190868686611923565b9050876001600160a01b0316816001600160a01b03161480610c545750886001600160a01b0316816001600160a01b0316145b610ca5576040805162461bcd60e51b815260206004820152601760248201527f4d757374206265206275796572206f722073656c6c6572000000000000000000604482015290519081900360640190fd5b610cad611e65565b6000610cbc8c8c8c8c8c611a39565b60408051606081018252925460ff81161515808552610100820463ffffffff166020860152600160281b9091046001600160801b0316918401919091529193509150610d47576040805162461bcd60e51b8152602060048201526015602482015274115cd8dc9bddc8191bd95cc81b9bdd08195e1a5cdd605a1b604482015290519081900360640190fd5b60648460ff161115610d8a5760405162461bcd60e51b8152600401808060200182810382526022815260200180611e866022913960400191505060405180910390fd5b60408201513a618d0402016001600160801b0316808a038a1015610de6576040805162461bcd60e51b815260206004820152600e60248201526d27bb32b9333637bb9032b93937b960911b604482015290519081900360640190fd5b600380548201905560008281526004602052604080822080546001600160a81b03191690555183917f65e0c7182ce84cd9087c1b07dc4b65875578877b885848e4be19ee312f2c3d3191a260ff851615610edc5761271061ffff8a168b0204606460ff87168c02048290038190038b811115610e9a576040805162461bcd60e51b815260206004820152600e60248201526d27bb32b9333637bb9032b93937b960911b604482015290519081900360640190fd5b60038054830190556040516001600160a01b038e169082156108fc029083906000818181858888f19350505050158015610ed8573d6000803e3d6000fd5b5050505b60648560ff161015610f2b576040516001600160a01b038d1690606487810360ff16848e03020480156108fc02916000818181858888f19350505050158015610f29573d6000803e3d6000fd5b505b50505050505050505050505050565b6000336001600160a01b03851614610f89576040805162461bcd60e51b815260206004820152600d60248201526c26bab9ba10313290313abcb2b960991b604482015290519081900360640190fd5b610f9886868686866000611abe565b9695505050505050565b60046020526000908152604090205460ff811690610100810463ffffffff1690600160281b90046001600160801b031683565b600254600160a01b900463ffffffff1681565b6001546001600160a01b03163314611037576040805162461bcd60e51b815260206004820152600d60248201526c26bab9ba1031329037bbb732b960991b604482015290519081900360640190fd5b600280546001600160a01b0319166001600160a01b0392909216919091179055565b6000546001600160a01b031681565b6002546001600160a01b031681565b6001546001600160a01b031681565b6060808b516040519080825280602002602001820160405280156110b4578160200160208202803883390190505b506002549091506000906001600160a01b031633146110d45760006110e2565b8c51616f54816110e057fe5b045b905060005b8d518160ff161015611209576111e28e8260ff168151811061110557fe5b60200260200101518e8360ff168151811061111c57fe5b60200260200101518e8460ff168151811061113357fe5b60200260200101518e8560ff168151811061114a57fe5b60200260200101518e8660ff168151811061116157fe5b60200260200101518e8760ff168151811061117857fe5b60200260200101518e8860ff168151811061118f57fe5b60200260200101518e8960ff16815181106111a657fe5b60200260200101518e8a60ff16815181106111bd57fe5b60200260200101518e8b60ff16815181106111d457fe5b60200260200101518c611bb6565b838260ff16815181106111f157fe5b911515602092830291909101909101526001016110e7565b50909c9b505050505050505050505050565b6001546001600160a01b0316331461126a576040805162461bcd60e51b815260206004820152600d60248201526c26bab9ba1031329037bbb732b960991b604482015290519081900360640190fd5b6003548111156112ab5760405162461bcd60e51b8152600401808060200182810382526026815260200180611ea86026913960400191505060405180910390fd5b6003805482900390556040516001600160a01b0383169082156108fc029083906000818181858888f193505050501580156112ea573d6000803e3d6000fd5b505050565b6001546001600160a01b0316331461133e576040805162461bcd60e51b815260206004820152600d60248201526c26bab9ba1031329037bbb732b960991b604482015290519081900360640190fd5b600080546001600160a01b0319166001600160a01b0392909216919091179055565b6001546001600160a01b031633146113af576040805162461bcd60e51b815260206004820152600d60248201526c26bab9ba1031329037bbb732b960991b604482015290519081900360640190fd5b826001600160a01b031663095ea7b383836040518363ffffffff1660e01b815260040180836001600160a01b03166001600160a01b0316815260200182815260200192505050602060405180830381600087803b15801561140f57600080fd5b505af1158015611423573d6000803e3d6000fd5b505050506040513d602081101561143957600080fd5b5050505050565b60035481565b6001546001600160a01b03163314611495576040805162461bcd60e51b815260206004820152600d60248201526c26bab9ba1031329037bbb732b960991b604482015290519081900360640190fd5b604080516323b872dd60e01b81526001600160a01b0385811660048301528481166024830152604482018490529151918616916323b872dd916064808201926020929091908290030181600087803b1580156114f057600080fd5b505af1158015611504573d6000803e3d6000fd5b505050506040513d602081101561151a57600080fd5b505050505050565b6000336001600160a01b03861614611572576040805162461bcd60e51b815260206004820152600e60248201526d26bab9ba1031329039b2b63632b960911b604482015290519081900360640190fd5b610f9886868686866000611cab565b604080516001600160801b03198c166020808301919091526bffffffffffffffffffffffff1960608d811b821660308501528c901b166044830152605882018a90526001600160f01b031960f08a901b1660788301528251605a818403018152607a9092018352815191810191909120600081815260049092529190205460ff161561164b576040805162461bcd60e51b8152602060048201526014602482015273547261646520616c72656164792065786973747360601b604482015290519081900360640190fd5b6040805160208082018490526001600160e01b031960e08a811b82168486015289901b16604483015282516028818403018152604890920190925280519101206002546001600160a01b03166116a382878787611923565b6001600160a01b0316146116f0576040805162461bcd60e51b815260206004820152600f60248201526e26bab9ba103132903932b630bcb2b960891b604482015290519081900360640190fd5b8563ffffffff164210611742576040805162461bcd60e51b815260206004820152601560248201527414da59db985d1d5c99481a185cc8195e1c1a5c9959605a1b604482015290519081900360640190fd5b88341480156117515750600034115b611799576040805162461bcd60e51b8152602060048201526014602482015273125b98dbdc9c9958dd08195d1a195c881cd95b9d60621b604482015290519081900360640190fd5b600063ffffffff8816156117af578742016117b2565b60015b604080516060810182526001815263ffffffff808416602080840191825260008486018181528a8252600490925285812094518554935192516001600160801b0316600160281b0274ffffffffffffffffffffffffffffffff000000000019939095166101000264ffffffff001991151560ff199095169490941716929092171691909117909155905191925084917f102d25c49d33fcdb8976a3f2744e0785c98d9e43b88364859e6aec4ae82eff5c9190a250505050505050505050505050565b6001546001600160a01b031633146118c3576040805162461bcd60e51b815260206004820152600d60248201526c26bab9ba1031329037bbb732b960991b604482015290519081900360640190fd5b826001600160a01b031663a9059cbb83836040518363ffffffff1660e01b815260040180836001600160a01b03166001600160a01b0316815260200182815260200192505050602060405180830381600087803b15801561140f57600080fd5b600060606040518060400160405280601c81526020017f19457468657265756d205369676e6564204d6573736167653a0a3332000000008152509050600081876040516020018083805190602001908083835b602083106119955780518252601f199092019160209182019101611976565b51815160209384036101000a6000190180199092169116179052920193845250604080518085038152848301808352815191840191909120600090915281850180835281905260ff8c166060860152608085018b905260a085018a905290519095506001945060c080850194929350601f198201928290030190855afa158015611a23573d6000803e3d6000fd5b5050604051601f19015198975050505050505050565b604080516001600160801b031996909616602080880191909152606095861b6bffffffffffffffffffffffff1990811660308901529490951b9093166044860152605885019190915260f01b6001600160f01b03191660788401528051808403605a018152607a90930181528251928201929092206000818152600490925291902091565b6000611ac8611e65565b6000611ad78989898989611a39565b60408051606081018252925460ff81161515808552610100820463ffffffff166020860152600160281b9091046001600160801b0316918401919091529193509150611b2857600092505050610f98565b6002546000906001600160a01b03163314611b44576000611b4c565b61b4af85013a025b6040808501516000858152600460205282812080546001600160a81b031916905591519201925083917fd9b627ddaa414e8e6c82366cc9c179f6281d73968827cc17038a56852e28ac8b9190a2611ba68988836000611d8e565b5060019998505050505050505050565b600080611bc78d858a8a8a8a611df9565b90508a6001600160a01b0316816001600160a01b03161415611c0a5760ff841660021415611c0557611bfd8d8d8d8d8d88611abe565b915050611c9c565b611c9a565b8b6001600160a01b0316816001600160a01b03161415611c3e5760ff841660011415611c0557611bfd8d8d8d8d8d88611cab565b336001600160a01b038d1614611c90576040805162461bcd60e51b8152602060048201526012602482015271556e7265636f676e6973656420706172747960701b604482015290519081900360640190fd5b6000915050611c9c565b505b9b9a5050505050505050505050565b6000611cb5611e65565b6000611cc48989898989611a39565b60408051606081018252925460ff81161515808552610100820463ffffffff166020860152600160281b9091046001600160801b0316918401919091529193509150611d1557600092505050610f98565b6002546000906001600160a01b03163314611d31576000611d39565b61b5fc85013a025b6040808501516000858152600460205282812080546001600160a81b031916905591519201925083917f6eec2dd2382427616d4ea7ef183b16091feac4e2e63c8b55f25215f132df8d149190a2611ba6888883895b61271061ffff82168402046001600160801b03831601808403841015611db45750611df3565b60038054820190556040516001600160a01b0386169082860380156108fc02916000818181858888f1935050505015801561151a573d6000803e3d6000fd5b50505050565b604080516001600160801b03198089166020808401919091526001600160f81b031960f88a901b166030840152608088901b90911660318301528251602181840301815260419092019092528051910120600090611e5981868686611923565b98975050505050505050565b60408051606081018252600080825260208201819052918101919091529056fe5f627579657250657263656e74206d75737420626520313030206f72206c6f776572416d6f756e7420697320686967686572207468616e20616d6f756e7420617661696c61626c65a265627a7a7231582071306347cb3db5a0454dc3fbd33c192b2eda891ca5a1831c263b1a0c52a0b86964736f6c63430005110032",
  "devdoc": {
    "methods": {
      "setArbitrator(address)": {
        "params": {
          "_newArbitrator": "Address of the replacement arbitrator"
        }
      },
      "withdrawFees(address,uint256)": {
        "params": {
          "_amount": "Amount to withdraw",
          "_to": "Address to withdraw fees in to"
        }
      }
    }
  },
  "userdoc": {
    "methods": {
      "approveToken(address,address,uint256)": {
        "notice": "Allows the owner to withdraw stuck ERC20 tokens."
      },
      "createEscrow(bytes16,address,address,uint256,uint16,uint32,uint32,uint8,bytes32,bytes32)": {
        "notice": "Create and fund a new escrow."
      },
      "setArbitrator(address)": {
        "notice": "Set the arbitrator to a new address. Only the owner can call this."
      },
      "setOwner(address)": {
        "notice": "Change the owner to a new address."
      },
      "setRelayer(address)": {
        "notice": "Change the relayer to a new address."
      },
      "transferToken(address,address,uint256)": {
        "notice": "Allows the owner to withdraw stuck ERC20 tokens."
      },
      "transferTokenFrom(address,address,address,uint256)": {
        "notice": "Allows the owner to withdraw stuck ERC20 tokens."
      },
      "withdrawFees(address,uint256)": {
        "notice": "Withdraw fees collected by the contract. Only the owner can call this."
      }
    }
  },
  "storageLayout": {
    "storage": [
      {
        "astId": 559,
        "contract": "contracts/localcoinswap/EthereumEscrow.sol:LocalCoinSwapEthereumEscrow",
        "label": "arbitrator",
        "offset": 0,
        "slot": "0",
        "type": "t_address"
      },
      {
        "astId": 561,
        "contract": "contracts/localcoinswap/EthereumEscrow.sol:LocalCoinSwapEthereumEscrow",
        "label": "owner",
        "offset": 0,
        "slot": "1",
        "type": "t_address"
      },
      {
        "astId": 563,
        "contract": "contracts/localcoinswap/EthereumEscrow.sol:LocalCoinSwapEthereumEscrow",
        "label": "relayer",
        "offset": 0,
        "slot": "2",
        "type": "t_address"
      },
      {
        "astId": 566,
        "contract": "contracts/localcoinswap/EthereumEscrow.sol:LocalCoinSwapEthereumEscrow",
        "label": "requestCancellationMinimumTime",
        "offset": 20,
        "slot": "2",
        "type": "t_uint32"
      },
      {
        "astId": 568,
        "contract": "contracts/localcoinswap/EthereumEscrow.sol:LocalCoinSwapEthereumEscrow",
        "label": "feesAvailableForWithdraw",
        "offset": 0,
        "slot": "3",
        "type": "t_uint256"
      },
      {
        "astId": 616,
        "contract": "contracts/localcoinswap/EthereumEscrow.sol:LocalCoinSwapEthereumEscrow",
        "label": "escrows",
        "offset": 0,
        "slot": "4",
        "type": "t_mapping(t_bytes32,t_struct(Escrow)612_storage)"
      }
    ],
    "types": {
      "t_address": {
        "encoding": "inplace",
        "label": "address",
        "numberOfBytes": "20"
      },
      "t_bool": {
        "encoding": "inplace",
        "label": "bool",
        "numberOfBytes": "1"
      },
      "t_bytes32": {
        "encoding": "inplace",
        "label": "bytes32",
        "numberOfBytes": "32"
      },
      "t_mapping(t_bytes32,t_struct(Escrow)612_storage)": {
        "encoding": "mapping",
        "key": "t_bytes32",
        "label": "mapping(bytes32 => struct LocalCoinSwapEthereumEscrow.Escrow)",
        "numberOfBytes": "32",
        "value": "t_struct(Escrow)612_storage"
      },
      "t_struct(Escrow)612_storage": {
        "encoding": "inplace",
        "label": "struct LocalCoinSwapEthereumEscrow.Escrow",
        "members": [
          {
            "astId": 607,
            "contract": "contracts/localcoinswap/EthereumEscrow.sol:LocalCoinSwapEthereumEscrow",
            "label": "exists",
            "offset": 0,
            "slot": "0",
            "type": "t_bool"
          },
          {
            "astId": 609,
            "contract": "contracts/localcoinswap/EthereumEscrow.sol:LocalCoinSwapEthereumEscrow",
            "label": "sellerCanCancelAfter",
            "offset": 1,
            "slot": "0",
            "type": "t_uint32"
          },
          {
            "astId": 611,
            "contract": "contracts/localcoinswap/EthereumEscrow.sol:LocalCoinSwapEthereumEscrow",
            "label": "totalGasFeesSpentByRelayer",
            "offset": 5,
            "slot": "0",
            "type": "t_uint128"
          }
        ],
        "numberOfBytes": "32"
      },
      "t_uint128": {
        "encoding": "inplace",
        "label": "uint128",
        "numberOfBytes": "16"
      },
      "t_uint256": {
        "encoding": "inplace",
        "label": "uint256",
        "numberOfBytes": "32"
      },
      "t_uint32": {
        "encoding": "inplace",
        "label": "uint32",
        "numberOfBytes": "4"
      }
    }
  },
  "gasEstimates": {
    "creation": {
      "codeDepositCost": "1587600",
      "executionCost": "infinite",
      "totalCost": "infinite"
    },
    "external": {
      "approveToken(address,address,uint256)": "infinite",
      "arbitrator()": "1104",
      "batchRelay(bytes16[],address[],address[],uint256[],uint16[],uint128[],uint8[],bytes32[],bytes32[],uint8[])": "infinite",
      "buyerCancel(bytes16,address,address,uint256,uint16)": "infinite",
      "createEscrow(bytes16,address,address,uint256,uint16,uint32,uint32,uint8,bytes32,bytes32)": "infinite",
      "escrows(bytes32)": "1329",
      "feesAvailableForWithdraw()": "1020",
      "owner()": "1148",
      "relayer()": "1126",
      "release(bytes16,address,address,uint256,uint16)": "infinite",
      "requestCancellationMinimumTime()": "1053",
      "resolveDispute(bytes16,address,address,uint256,uint16,uint8,bytes32,bytes32,uint8)": "infinite",
      "setArbitrator(address)": "21980",
      "setOwner(address)": "21937",
      "setRelayer(address)": "21958",
      "transferToken(address,address,uint256)": "infinite",
      "transferTokenFrom(address,address,address,uint256)": "infinite",
      "withdrawFees(address,uint256)": "infinite"
    },
    "internal": {
      "doBuyerCancel(bytes16,address payable,address payable,uint256,uint16,uint128)": "infinite",
      "doRelease(bytes16,address payable,address payable,uint256,uint16,uint128)": "infinite",
      "doSellerRequestCancel(bytes16,address,address,uint256,uint16,uint128)": "infinite",
      "getEscrowAndHash(bytes16,address,address,uint256,uint16)": "infinite",
      "getRelayedSender(bytes16,uint8,uint128,uint8,bytes32,bytes32)": "infinite",
      "increaseGasSpent(bytes32,uint128)": "infinite",
      "recoverAddress(bytes32,uint8,bytes32,bytes32)": "infinite",
      "relay(bytes16,address payable,address payable,uint256,uint16,uint128,uint8,bytes32,bytes32,uint8,uint128)": "infinite",
      "transferMinusFees(address payable,uint256,uint128,uint16)": "infinite"
    }
  }
}